{
  "_format": "hh-sol-artifact-1",
  "contractName": "HaverRealState",
  "sourceName": "contracts/RealState.sol",
  "abi": [
    {
      "inputs": [],
      "stateMutability": "nonpayable",
      "type": "constructor"
    },
    {
      "inputs": [],
      "name": "ERC721EnumerableForbiddenBatchMint",
      "type": "error"
    },
    {
      "inputs": [
        {
          "internalType": "address",
          "name": "sender",
          "type": "address"
        },
        {
          "internalType": "uint256",
          "name": "tokenId",
          "type": "uint256"
        },
        {
          "internalType": "address",
          "name": "owner",
          "type": "address"
        }
      ],
      "name": "ERC721IncorrectOwner",
      "type": "error"
    },
    {
      "inputs": [
        {
          "internalType": "address",
          "name": "operator",
          "type": "address"
        },
        {
          "internalType": "uint256",
          "name": "tokenId",
          "type": "uint256"
        }
      ],
      "name": "ERC721InsufficientApproval",
      "type": "error"
    },
    {
      "inputs": [
        {
          "internalType": "address",
          "name": "approver",
          "type": "address"
        }
      ],
      "name": "ERC721InvalidApprover",
      "type": "error"
    },
    {
      "inputs": [
        {
          "internalType": "address",
          "name": "operator",
          "type": "address"
        }
      ],
      "name": "ERC721InvalidOperator",
      "type": "error"
    },
    {
      "inputs": [
        {
          "internalType": "address",
          "name": "owner",
          "type": "address"
        }
      ],
      "name": "ERC721InvalidOwner",
      "type": "error"
    },
    {
      "inputs": [
        {
          "internalType": "address",
          "name": "receiver",
          "type": "address"
        }
      ],
      "name": "ERC721InvalidReceiver",
      "type": "error"
    },
    {
      "inputs": [
        {
          "internalType": "address",
          "name": "sender",
          "type": "address"
        }
      ],
      "name": "ERC721InvalidSender",
      "type": "error"
    },
    {
      "inputs": [
        {
          "internalType": "uint256",
          "name": "tokenId",
          "type": "uint256"
        }
      ],
      "name": "ERC721NonexistentToken",
      "type": "error"
    },
    {
      "inputs": [
        {
          "internalType": "address",
          "name": "owner",
          "type": "address"
        },
        {
          "internalType": "uint256",
          "name": "index",
          "type": "uint256"
        }
      ],
      "name": "ERC721OutOfBoundsIndex",
      "type": "error"
    },
    {
      "inputs": [
        {
          "internalType": "address",
          "name": "owner",
          "type": "address"
        }
      ],
      "name": "OwnableInvalidOwner",
      "type": "error"
    },
    {
      "inputs": [
        {
          "internalType": "address",
          "name": "account",
          "type": "address"
        }
      ],
      "name": "OwnableUnauthorizedAccount",
      "type": "error"
    },
    {
      "anonymous": false,
      "inputs": [
        {
          "indexed": true,
          "internalType": "address",
          "name": "owner",
          "type": "address"
        },
        {
          "indexed": true,
          "internalType": "address",
          "name": "approved",
          "type": "address"
        },
        {
          "indexed": true,
          "internalType": "uint256",
          "name": "tokenId",
          "type": "uint256"
        }
      ],
      "name": "Approval",
      "type": "event"
    },
    {
      "anonymous": false,
      "inputs": [
        {
          "indexed": true,
          "internalType": "address",
          "name": "owner",
          "type": "address"
        },
        {
          "indexed": true,
          "internalType": "address",
          "name": "operator",
          "type": "address"
        },
        {
          "indexed": false,
          "internalType": "bool",
          "name": "approved",
          "type": "bool"
        }
      ],
      "name": "ApprovalForAll",
      "type": "event"
    },
    {
      "anonymous": false,
      "inputs": [
        {
          "indexed": false,
          "internalType": "uint256",
          "name": "_fromTokenId",
          "type": "uint256"
        },
        {
          "indexed": false,
          "internalType": "uint256",
          "name": "_toTokenId",
          "type": "uint256"
        }
      ],
      "name": "BatchMetadataUpdate",
      "type": "event"
    },
    {
      "anonymous": false,
      "inputs": [
        {
          "indexed": false,
          "internalType": "uint256",
          "name": "_tokenId",
          "type": "uint256"
        }
      ],
      "name": "MetadataUpdate",
      "type": "event"
    },
    {
      "anonymous": false,
      "inputs": [
        {
          "indexed": true,
          "internalType": "address",
          "name": "previousOwner",
          "type": "address"
        },
        {
          "indexed": true,
          "internalType": "address",
          "name": "newOwner",
          "type": "address"
        }
      ],
      "name": "OwnershipTransferred",
      "type": "event"
    },
    {
      "anonymous": false,
      "inputs": [
        {
          "indexed": true,
          "internalType": "address",
          "name": "from",
          "type": "address"
        },
        {
          "indexed": true,
          "internalType": "address",
          "name": "to",
          "type": "address"
        },
        {
          "indexed": true,
          "internalType": "uint256",
          "name": "tokenId",
          "type": "uint256"
        }
      ],
      "name": "Transfer",
      "type": "event"
    },
    {
      "inputs": [
        {
          "internalType": "address",
          "name": "to",
          "type": "address"
        },
        {
          "internalType": "uint256",
          "name": "tokenId",
          "type": "uint256"
        }
      ],
      "name": "approve",
      "outputs": [],
      "stateMutability": "nonpayable",
      "type": "function"
    },
    {
      "inputs": [
        {
          "internalType": "address",
          "name": "owner",
          "type": "address"
        }
      ],
      "name": "balanceOf",
      "outputs": [
        {
          "internalType": "uint256",
          "name": "",
          "type": "uint256"
        }
      ],
      "stateMutability": "view",
      "type": "function"
    },
    {
      "inputs": [
        {
          "internalType": "uint256",
          "name": "tokenId",
          "type": "uint256"
        }
      ],
      "name": "getApproved",
      "outputs": [
        {
          "internalType": "address",
          "name": "",
          "type": "address"
        }
      ],
      "stateMutability": "view",
      "type": "function"
    },
    {
      "inputs": [
        {
          "internalType": "address",
          "name": "owner",
          "type": "address"
        },
        {
          "internalType": "address",
          "name": "operator",
          "type": "address"
        }
      ],
      "name": "isApprovedForAll",
      "outputs": [
        {
          "internalType": "bool",
          "name": "",
          "type": "bool"
        }
      ],
      "stateMutability": "view",
      "type": "function"
    },
    {
      "inputs": [],
      "name": "name",
      "outputs": [
        {
          "internalType": "string",
          "name": "",
          "type": "string"
        }
      ],
      "stateMutability": "view",
      "type": "function"
    },
    {
      "inputs": [],
      "name": "owner",
      "outputs": [
        {
          "internalType": "address",
          "name": "",
          "type": "address"
        }
      ],
      "stateMutability": "view",
      "type": "function"
    },
    {
      "inputs": [
        {
          "internalType": "uint256",
          "name": "tokenId",
          "type": "uint256"
        }
      ],
      "name": "ownerOf",
      "outputs": [
        {
          "internalType": "address",
          "name": "",
          "type": "address"
        }
      ],
      "stateMutability": "view",
      "type": "function"
    },
    {
      "inputs": [],
      "name": "renounceOwnership",
      "outputs": [],
      "stateMutability": "nonpayable",
      "type": "function"
    },
    {
      "inputs": [
        {
          "internalType": "string",
          "name": "uri",
          "type": "string"
        }
      ],
      "name": "safeMint",
      "outputs": [],
      "stateMutability": "nonpayable",
      "type": "function"
    },
    {
      "inputs": [
        {
          "internalType": "address",
          "name": "from",
          "type": "address"
        },
        {
          "internalType": "address",
          "name": "to",
          "type": "address"
        },
        {
          "internalType": "uint256",
          "name": "tokenId",
          "type": "uint256"
        }
      ],
      "name": "safeTransferFrom",
      "outputs": [],
      "stateMutability": "nonpayable",
      "type": "function"
    },
    {
      "inputs": [
        {
          "internalType": "address",
          "name": "from",
          "type": "address"
        },
        {
          "internalType": "address",
          "name": "to",
          "type": "address"
        },
        {
          "internalType": "uint256",
          "name": "tokenId",
          "type": "uint256"
        },
        {
          "internalType": "bytes",
          "name": "data",
          "type": "bytes"
        }
      ],
      "name": "safeTransferFrom",
      "outputs": [],
      "stateMutability": "nonpayable",
      "type": "function"
    },
    {
      "inputs": [
        {
          "internalType": "address",
          "name": "operator",
          "type": "address"
        },
        {
          "internalType": "bool",
          "name": "approved",
          "type": "bool"
        }
      ],
      "name": "setApprovalForAll",
      "outputs": [],
      "stateMutability": "nonpayable",
      "type": "function"
    },
    {
      "inputs": [
        {
          "internalType": "bytes4",
          "name": "interfaceId",
          "type": "bytes4"
        }
      ],
      "name": "supportsInterface",
      "outputs": [
        {
          "internalType": "bool",
          "name": "",
          "type": "bool"
        }
      ],
      "stateMutability": "view",
      "type": "function"
    },
    {
      "inputs": [],
      "name": "symbol",
      "outputs": [
        {
          "internalType": "string",
          "name": "",
          "type": "string"
        }
      ],
      "stateMutability": "view",
      "type": "function"
    },
    {
      "inputs": [
        {
          "internalType": "uint256",
          "name": "index",
          "type": "uint256"
        }
      ],
      "name": "tokenByIndex",
      "outputs": [
        {
          "internalType": "uint256",
          "name": "",
          "type": "uint256"
        }
      ],
      "stateMutability": "view",
      "type": "function"
    },
    {
      "inputs": [
        {
          "internalType": "address",
          "name": "owner",
          "type": "address"
        },
        {
          "internalType": "uint256",
          "name": "index",
          "type": "uint256"
        }
      ],
      "name": "tokenOfOwnerByIndex",
      "outputs": [
        {
          "internalType": "uint256",
          "name": "",
          "type": "uint256"
        }
      ],
      "stateMutability": "view",
      "type": "function"
    },
    {
      "inputs": [
        {
          "internalType": "uint256",
          "name": "tokenId",
          "type": "uint256"
        }
      ],
      "name": "tokenURI",
      "outputs": [
        {
          "internalType": "string",
          "name": "",
          "type": "string"
        }
      ],
      "stateMutability": "view",
      "type": "function"
    },
    {
      "inputs": [],
      "name": "totalSupply",
      "outputs": [
        {
          "internalType": "uint256",
          "name": "",
          "type": "uint256"
        }
      ],
      "stateMutability": "view",
      "type": "function"
    },
    {
      "inputs": [
        {
          "internalType": "address",
          "name": "from",
          "type": "address"
        },
        {
          "internalType": "address",
          "name": "to",
          "type": "address"
        },
        {
          "internalType": "uint256",
          "name": "tokenId",
          "type": "uint256"
        }
      ],
      "name": "transferFrom",
      "outputs": [],
      "stateMutability": "nonpayable",
      "type": "function"
    },
    {
      "inputs": [
        {
          "internalType": "address",
          "name": "newOwner",
          "type": "address"
        }
      ],
      "name": "transferOwnership",
      "outputs": [],
      "stateMutability": "nonpayable",
      "type": "function"
    }
  ],
  "bytecode": "0x60806040526000600c553480156200001657600080fd5b50336040518060400160405280601181526020017f6841766572205265616c204573746174650000000000000000000000000000008152506040518060400160405280600381526020017f4852450000000000000000000000000000000000000000000000000000000000815250816000908162000095919062000477565b508060019081620000a7919062000477565b505050600073ffffffffffffffffffffffffffffffffffffffff168173ffffffffffffffffffffffffffffffffffffffff16036200011f5760006040517f1e4fbdf7000000000000000000000000000000000000000000000000000000008152600401620001169190620005a3565b60405180910390fd5b62000130816200013760201b60201c565b50620005c0565b6000600b60009054906101000a900473ffffffffffffffffffffffffffffffffffffffff16905081600b60006101000a81548173ffffffffffffffffffffffffffffffffffffffff021916908373ffffffffffffffffffffffffffffffffffffffff1602179055508173ffffffffffffffffffffffffffffffffffffffff168173ffffffffffffffffffffffffffffffffffffffff167f8be0079c531659141344cd1fd0a4f28419497f9722a3daafe3b4186f6b6457e060405160405180910390a35050565b600081519050919050565b7f4e487b7100000000000000000000000000000000000000000000000000000000600052604160045260246000fd5b7f4e487b7100000000000000000000000000000000000000000000000000000000600052602260045260246000fd5b600060028204905060018216806200027f57607f821691505b60208210810362000295576200029462000237565b5b50919050565b60008190508160005260206000209050919050565b60006020601f8301049050919050565b600082821b905092915050565b600060088302620002ff7fffffffffffffffffffffffffffffffffffffffffffffffffffffffffffffffff82620002c0565b6200030b8683620002c0565b95508019841693508086168417925050509392505050565b6000819050919050565b6000819050919050565b600062000358620003526200034c8462000323565b6200032d565b62000323565b9050919050565b6000819050919050565b620003748362000337565b6200038c62000383826200035f565b848454620002cd565b825550505050565b600090565b620003a362000394565b620003b081848462000369565b505050565b5b81811015620003d857620003cc60008262000399565b600181019050620003b6565b5050565b601f8211156200042757620003f1816200029b565b620003fc84620002b0565b810160208510156200040c578190505b620004246200041b85620002b0565b830182620003b5565b50505b505050565b600082821c905092915050565b60006200044c600019846008026200042c565b1980831691505092915050565b600062000467838362000439565b9150826002028217905092915050565b6200048282620001fd565b67ffffffffffffffff8111156200049e576200049d62000208565b5b620004aa825462000266565b620004b7828285620003dc565b600060209050601f831160018114620004ef5760008415620004da578287015190505b620004e6858262000459565b86555062000556565b601f198416620004ff866200029b565b60005b82811015620005295784890151825560018201915060208501945060208101905062000502565b8683101562000549578489015162000545601f89168262000439565b8355505b6001600288020188555050505b505050505050565b600073ffffffffffffffffffffffffffffffffffffffff82169050919050565b60006200058b826200055e565b9050919050565b6200059d816200057e565b82525050565b6000602082019050620005ba600083018462000592565b92915050565b612d7280620005d06000396000f3fe608060405234801561001057600080fd5b506004361061012c5760003560e01c8063695850fb116100ad578063a22cb46511610071578063a22cb46514610343578063b88d4fde1461035f578063c87b56dd1461037b578063e985e9c5146103ab578063f2fde38b146103db5761012c565b8063695850fb146102b157806370a08231146102cd578063715018a6146102fd5780638da5cb5b1461030757806395d89b41146103255761012c565b806323b872dd116100f457806323b872dd146101e95780632f745c591461020557806342842e0e146102355780634f6ccce7146102515780636352211e146102815761012c565b806301ffc9a71461013157806306fdde0314610161578063081812fc1461017f578063095ea7b3146101af57806318160ddd146101cb575b600080fd5b61014b6004803603810190610146919061214b565b6103f7565b6040516101589190612193565b60405180910390f35b610169610409565b604051610176919061223e565b60405180910390f35b61019960048036038101906101949190612296565b61049b565b6040516101a69190612304565b60405180910390f35b6101c960048036038101906101c4919061234b565b6104b7565b005b6101d36104cd565b6040516101e0919061239a565b60405180910390f35b61020360048036038101906101fe91906123b5565b6104da565b005b61021f600480360381019061021a919061234b565b6105dc565b60405161022c919061239a565b60405180910390f35b61024f600480360381019061024a91906123b5565b610685565b005b61026b60048036038101906102669190612296565b6106a5565b604051610278919061239a565b60405180910390f35b61029b60048036038101906102969190612296565b61071b565b6040516102a89190612304565b60405180910390f35b6102cb60048036038101906102c6919061253d565b61072d565b005b6102e760048036038101906102e29190612586565b610760565b6040516102f4919061239a565b60405180910390f35b61030561081a565b005b61030f61082e565b60405161031c9190612304565b60405180910390f35b61032d610858565b60405161033a919061223e565b60405180910390f35b61035d600480360381019061035891906125df565b6108ea565b005b610379600480360381019061037491906126c0565b610900565b005b61039560048036038101906103909190612296565b61091d565b6040516103a2919061223e565b60405180910390f35b6103c560048036038101906103c09190612743565b61092f565b6040516103d29190612193565b60405180910390f35b6103f560048036038101906103f09190612586565b6109c3565b005b600061040282610a49565b9050919050565b606060008054610418906127b2565b80601f0160208091040260200160405190810160405280929190818152602001828054610444906127b2565b80156104915780601f1061046657610100808354040283529160200191610491565b820191906000526020600020905b81548152906001019060200180831161047457829003601f168201915b5050505050905090565b60006104a682610aaa565b506104b082610b32565b9050919050565b6104c982826104c4610b6f565b610b77565b5050565b6000600880549050905090565b600073ffffffffffffffffffffffffffffffffffffffff168273ffffffffffffffffffffffffffffffffffffffff160361054c5760006040517f64a0ae920000000000000000000000000000000000000000000000000000000081526004016105439190612304565b60405180910390fd5b6000610560838361055b610b6f565b610b89565b90508373ffffffffffffffffffffffffffffffffffffffff168173ffffffffffffffffffffffffffffffffffffffff16146105d6578382826040517f64283d7b0000000000000000000000000000000000000000000000000000000081526004016105cd939291906127e3565b60405180910390fd5b50505050565b60006105e783610760565b821061062c5782826040517fa57d13dc00000000000000000000000000000000000000000000000000000000815260040161062392919061281a565b60405180910390fd5b600660008473ffffffffffffffffffffffffffffffffffffffff1673ffffffffffffffffffffffffffffffffffffffff168152602001908152602001600020600083815260200190815260200160002054905092915050565b6106a083838360405180602001604052806000815250610900565b505050565b60006106af6104cd565b82106106f5576000826040517fa57d13dc0000000000000000000000000000000000000000000000000000000081526004016106ec92919061281a565b60405180910390fd5b6008828154811061070957610708612843565b5b90600052602060002001549050919050565b600061072682610aaa565b9050919050565b6000600c6000815480929190610742906128a1565b9190505590506107523382610b9f565b61075c8183610bbd565b5050565b60008073ffffffffffffffffffffffffffffffffffffffff168273ffffffffffffffffffffffffffffffffffffffff16036107d35760006040517f89c62b640000000000000000000000000000000000000000000000000000000081526004016107ca9190612304565b60405180910390fd5b600360008373ffffffffffffffffffffffffffffffffffffffff1673ffffffffffffffffffffffffffffffffffffffff168152602001908152602001600020549050919050565b610822610c19565b61082c6000610ca0565b565b6000600b60009054906101000a900473ffffffffffffffffffffffffffffffffffffffff16905090565b606060018054610867906127b2565b80601f0160208091040260200160405190810160405280929190818152602001828054610893906127b2565b80156108e05780601f106108b5576101008083540402835291602001916108e0565b820191906000526020600020905b8154815290600101906020018083116108c357829003601f168201915b5050505050905090565b6108fc6108f5610b6f565b8383610d66565b5050565b61090b8484846104da565b61091784848484610ed5565b50505050565b60606109288261108c565b9050919050565b6000600560008473ffffffffffffffffffffffffffffffffffffffff1673ffffffffffffffffffffffffffffffffffffffff16815260200190815260200160002060008373ffffffffffffffffffffffffffffffffffffffff1673ffffffffffffffffffffffffffffffffffffffff16815260200190815260200160002060009054906101000a900460ff16905092915050565b6109cb610c19565b600073ffffffffffffffffffffffffffffffffffffffff168173ffffffffffffffffffffffffffffffffffffffff1603610a3d5760006040517f1e4fbdf7000000000000000000000000000000000000000000000000000000008152600401610a349190612304565b60405180910390fd5b610a4681610ca0565b50565b6000634906490660e01b7bffffffffffffffffffffffffffffffffffffffffffffffffffffffff1916827bffffffffffffffffffffffffffffffffffffffffffffffffffffffff19161480610aa35750610aa28261119f565b5b9050919050565b600080610ab683611219565b9050600073ffffffffffffffffffffffffffffffffffffffff168173ffffffffffffffffffffffffffffffffffffffff1603610b2957826040517f7e273289000000000000000000000000000000000000000000000000000000008152600401610b20919061239a565b60405180910390fd5b80915050919050565b60006004600083815260200190815260200160002060009054906101000a900473ffffffffffffffffffffffffffffffffffffffff169050919050565b600033905090565b610b848383836001611256565b505050565b6000610b9684848461141b565b90509392505050565b610bb9828260405180602001604052806000815250611538565b5050565b80600a60008481526020019081526020016000209081610bdd9190612a95565b507ff8e1a15aba9398e019f0b49df1a4fde98ee17ae345cb5f6b5e2c27f5033e8ce782604051610c0d919061239a565b60405180910390a15050565b610c21610b6f565b73ffffffffffffffffffffffffffffffffffffffff16610c3f61082e565b73ffffffffffffffffffffffffffffffffffffffff1614610c9e57610c62610b6f565b6040517f118cdaa7000000000000000000000000000000000000000000000000000000008152600401610c959190612304565b60405180910390fd5b565b6000600b60009054906101000a900473ffffffffffffffffffffffffffffffffffffffff16905081600b60006101000a81548173ffffffffffffffffffffffffffffffffffffffff021916908373ffffffffffffffffffffffffffffffffffffffff1602179055508173ffffffffffffffffffffffffffffffffffffffff168173ffffffffffffffffffffffffffffffffffffffff167f8be0079c531659141344cd1fd0a4f28419497f9722a3daafe3b4186f6b6457e060405160405180910390a35050565b600073ffffffffffffffffffffffffffffffffffffffff168273ffffffffffffffffffffffffffffffffffffffff1603610dd757816040517f5b08ba18000000000000000000000000000000000000000000000000000000008152600401610dce9190612304565b60405180910390fd5b80600560008573ffffffffffffffffffffffffffffffffffffffff1673ffffffffffffffffffffffffffffffffffffffff16815260200190815260200160002060008473ffffffffffffffffffffffffffffffffffffffff1673ffffffffffffffffffffffffffffffffffffffff16815260200190815260200160002060006101000a81548160ff0219169083151502179055508173ffffffffffffffffffffffffffffffffffffffff168373ffffffffffffffffffffffffffffffffffffffff167f17307eab39ab6107e8899845ad3d59bd9653f200f220920489ca2b5937696c3183604051610ec89190612193565b60405180910390a3505050565b60008373ffffffffffffffffffffffffffffffffffffffff163b1115611086578273ffffffffffffffffffffffffffffffffffffffff1663150b7a02610f19610b6f565b8685856040518563ffffffff1660e01b8152600401610f3b9493929190612bbc565b6020604051808303816000875af1925050508015610f7757506040513d601f19601f82011682018060405250810190610f749190612c1d565b60015b610ffb573d8060008114610fa7576040519150601f19603f3d011682016040523d82523d6000602084013e610fac565b606091505b506000815103610ff357836040517f64a0ae92000000000000000000000000000000000000000000000000000000008152600401610fea9190612304565b60405180910390fd5b805181602001fd5b63150b7a0260e01b7bffffffffffffffffffffffffffffffffffffffffffffffffffffffff1916817bffffffffffffffffffffffffffffffffffffffffffffffffffffffff19161461108457836040517f64a0ae9200000000000000000000000000000000000000000000000000000000815260040161107b9190612304565b60405180910390fd5b505b50505050565b606061109782610aaa565b506000600a600084815260200190815260200160002080546110b8906127b2565b80601f01602080910402602001604051908101604052809291908181526020018280546110e4906127b2565b80156111315780601f1061110657610100808354040283529160200191611131565b820191906000526020600020905b81548152906001019060200180831161111457829003601f168201915b505050505090506000611142611554565b9050600081510361115757819250505061119a565b60008251111561118c578082604051602001611174929190612c86565b6040516020818303038152906040529250505061119a565b6111958461156b565b925050505b919050565b60007f780e9d63000000000000000000000000000000000000000000000000000000007bffffffffffffffffffffffffffffffffffffffffffffffffffffffff1916827bffffffffffffffffffffffffffffffffffffffffffffffffffffffff191614806112125750611211826115d4565b5b9050919050565b60006002600083815260200190815260200160002060009054906101000a900473ffffffffffffffffffffffffffffffffffffffff169050919050565b808061128f5750600073ffffffffffffffffffffffffffffffffffffffff168273ffffffffffffffffffffffffffffffffffffffff1614155b156113c357600061129f84610aaa565b9050600073ffffffffffffffffffffffffffffffffffffffff168373ffffffffffffffffffffffffffffffffffffffff161415801561130a57508273ffffffffffffffffffffffffffffffffffffffff168173ffffffffffffffffffffffffffffffffffffffff1614155b801561131d575061131b818461092f565b155b1561135f57826040517fa9fbf51f0000000000000000000000000000000000000000000000000000000081526004016113569190612304565b60405180910390fd5b81156113c157838573ffffffffffffffffffffffffffffffffffffffff168273ffffffffffffffffffffffffffffffffffffffff167f8c5be1e5ebec7d5bd14f71427d1e84f3dd0314c0f7b2291e5b200ac8c7c3b92560405160405180910390a45b505b836004600085815260200190815260200160002060006101000a81548173ffffffffffffffffffffffffffffffffffffffff021916908373ffffffffffffffffffffffffffffffffffffffff16021790555050505050565b6000806114298585856116b6565b9050600073ffffffffffffffffffffffffffffffffffffffff168173ffffffffffffffffffffffffffffffffffffffff160361146d57611468846118d0565b6114ac565b8473ffffffffffffffffffffffffffffffffffffffff168173ffffffffffffffffffffffffffffffffffffffff16146114ab576114aa8185611919565b5b5b600073ffffffffffffffffffffffffffffffffffffffff168573ffffffffffffffffffffffffffffffffffffffff16036114ee576114e984611a7a565b61152d565b8473ffffffffffffffffffffffffffffffffffffffff168173ffffffffffffffffffffffffffffffffffffffff161461152c5761152b8585611b4b565b5b5b809150509392505050565b6115428383611bd6565b61154f6000848484610ed5565b505050565b606060405180602001604052806000815250905090565b606061157682610aaa565b506000611581611554565b905060008151116115a157604051806020016040528060008152506115cc565b806115ab84611ccf565b6040516020016115bc929190612c86565b6040516020818303038152906040525b915050919050565b60007f80ac58cd000000000000000000000000000000000000000000000000000000007bffffffffffffffffffffffffffffffffffffffffffffffffffffffff1916827bffffffffffffffffffffffffffffffffffffffffffffffffffffffff1916148061169f57507f5b5e139f000000000000000000000000000000000000000000000000000000007bffffffffffffffffffffffffffffffffffffffffffffffffffffffff1916827bffffffffffffffffffffffffffffffffffffffffffffffffffffffff1916145b806116af57506116ae82611d9d565b5b9050919050565b6000806116c284611219565b9050600073ffffffffffffffffffffffffffffffffffffffff168373ffffffffffffffffffffffffffffffffffffffff161461170457611703818486611e07565b5b600073ffffffffffffffffffffffffffffffffffffffff168173ffffffffffffffffffffffffffffffffffffffff161461179557611746600085600080611256565b6001600360008373ffffffffffffffffffffffffffffffffffffffff1673ffffffffffffffffffffffffffffffffffffffff168152602001908152602001600020600082825403925050819055505b600073ffffffffffffffffffffffffffffffffffffffff168573ffffffffffffffffffffffffffffffffffffffff1614611818576001600360008773ffffffffffffffffffffffffffffffffffffffff1673ffffffffffffffffffffffffffffffffffffffff168152602001908152602001600020600082825401925050819055505b846002600086815260200190815260200160002060006101000a81548173ffffffffffffffffffffffffffffffffffffffff021916908373ffffffffffffffffffffffffffffffffffffffff160217905550838573ffffffffffffffffffffffffffffffffffffffff168273ffffffffffffffffffffffffffffffffffffffff167fddf252ad1be2c89b69c2b068fc378daa952ba7f163c4a11628f55a4df523b3ef60405160405180910390a4809150509392505050565b6008805490506009600083815260200190815260200160002081905550600881908060018154018082558091505060019003906000526020600020016000909190919091505550565b600061192483610760565b9050600060076000848152602001908152602001600020549050818114611a09576000600660008673ffffffffffffffffffffffffffffffffffffffff1673ffffffffffffffffffffffffffffffffffffffff168152602001908152602001600020600084815260200190815260200160002054905080600660008773ffffffffffffffffffffffffffffffffffffffff1673ffffffffffffffffffffffffffffffffffffffff168152602001908152602001600020600084815260200190815260200160002081905550816007600083815260200190815260200160002081905550505b6007600084815260200190815260200160002060009055600660008573ffffffffffffffffffffffffffffffffffffffff1673ffffffffffffffffffffffffffffffffffffffff16815260200190815260200160002060008381526020019081526020016000206000905550505050565b60006001600880549050611a8e9190612caa565b9050600060096000848152602001908152602001600020549050600060088381548110611abe57611abd612843565b5b906000526020600020015490508060088381548110611ae057611adf612843565b5b906000526020600020018190555081600960008381526020019081526020016000208190555060096000858152602001908152602001600020600090556008805480611b2f57611b2e612cde565b5b6001900381819060005260206000200160009055905550505050565b60006001611b5884610760565b611b629190612caa565b905081600660008573ffffffffffffffffffffffffffffffffffffffff1673ffffffffffffffffffffffffffffffffffffffff168152602001908152602001600020600083815260200190815260200160002081905550806007600084815260200190815260200160002081905550505050565b600073ffffffffffffffffffffffffffffffffffffffff168273ffffffffffffffffffffffffffffffffffffffff1603611c485760006040517f64a0ae92000000000000000000000000000000000000000000000000000000008152600401611c3f9190612304565b60405180910390fd5b6000611c5683836000610b89565b9050600073ffffffffffffffffffffffffffffffffffffffff168173ffffffffffffffffffffffffffffffffffffffff1614611cca5760006040517f73c6ac6e000000000000000000000000000000000000000000000000000000008152600401611cc19190612304565b60405180910390fd5b505050565b606060006001611cde84611ecb565b01905060008167ffffffffffffffff811115611cfd57611cfc612412565b5b6040519080825280601f01601f191660200182016040528015611d2f5781602001600182028036833780820191505090505b509050600082602001820190505b600115611d92578080600190039150507f3031323334353637383961626364656600000000000000000000000000000000600a86061a8153600a8581611d8657611d85612d0d565b5b04945060008503611d3d575b819350505050919050565b60007f01ffc9a7000000000000000000000000000000000000000000000000000000007bffffffffffffffffffffffffffffffffffffffffffffffffffffffff1916827bffffffffffffffffffffffffffffffffffffffffffffffffffffffff1916149050919050565b611e1283838361201e565b611ec657600073ffffffffffffffffffffffffffffffffffffffff168373ffffffffffffffffffffffffffffffffffffffff1603611e8757806040517f7e273289000000000000000000000000000000000000000000000000000000008152600401611e7e919061239a565b60405180910390fd5b81816040517f177e802f000000000000000000000000000000000000000000000000000000008152600401611ebd92919061281a565b60405180910390fd5b505050565b600080600090507a184f03e93ff9f4daa797ed6e38ed64bf6a1f0100000000000000008310611f29577a184f03e93ff9f4daa797ed6e38ed64bf6a1f0100000000000000008381611f1f57611f1e612d0d565b5b0492506040810190505b6d04ee2d6d415b85acef81000000008310611f66576d04ee2d6d415b85acef81000000008381611f5c57611f5b612d0d565b5b0492506020810190505b662386f26fc100008310611f9557662386f26fc100008381611f8b57611f8a612d0d565b5b0492506010810190505b6305f5e1008310611fbe576305f5e1008381611fb457611fb3612d0d565b5b0492506008810190505b6127108310611fe3576127108381611fd957611fd8612d0d565b5b0492506004810190505b606483106120065760648381611ffc57611ffb612d0d565b5b0492506002810190505b600a8310612015576001810190505b80915050919050565b60008073ffffffffffffffffffffffffffffffffffffffff168373ffffffffffffffffffffffffffffffffffffffff16141580156120d657508273ffffffffffffffffffffffffffffffffffffffff168473ffffffffffffffffffffffffffffffffffffffff1614806120975750612096848461092f565b5b806120d557508273ffffffffffffffffffffffffffffffffffffffff166120bd83610b32565b73ffffffffffffffffffffffffffffffffffffffff16145b5b90509392505050565b6000604051905090565b600080fd5b600080fd5b60007fffffffff0000000000000000000000000000000000000000000000000000000082169050919050565b612128816120f3565b811461213357600080fd5b50565b6000813590506121458161211f565b92915050565b600060208284031215612161576121606120e9565b5b600061216f84828501612136565b91505092915050565b60008115159050919050565b61218d81612178565b82525050565b60006020820190506121a86000830184612184565b92915050565b600081519050919050565b600082825260208201905092915050565b60005b838110156121e85780820151818401526020810190506121cd565b60008484015250505050565b6000601f19601f8301169050919050565b6000612210826121ae565b61221a81856121b9565b935061222a8185602086016121ca565b612233816121f4565b840191505092915050565b600060208201905081810360008301526122588184612205565b905092915050565b6000819050919050565b61227381612260565b811461227e57600080fd5b50565b6000813590506122908161226a565b92915050565b6000602082840312156122ac576122ab6120e9565b5b60006122ba84828501612281565b91505092915050565b600073ffffffffffffffffffffffffffffffffffffffff82169050919050565b60006122ee826122c3565b9050919050565b6122fe816122e3565b82525050565b600060208201905061231960008301846122f5565b92915050565b612328816122e3565b811461233357600080fd5b50565b6000813590506123458161231f565b92915050565b60008060408385031215612362576123616120e9565b5b600061237085828601612336565b925050602061238185828601612281565b9150509250929050565b61239481612260565b82525050565b60006020820190506123af600083018461238b565b92915050565b6000806000606084860312156123ce576123cd6120e9565b5b60006123dc86828701612336565b93505060206123ed86828701612336565b92505060406123fe86828701612281565b9150509250925092565b600080fd5b600080fd5b7f4e487b7100000000000000000000000000000000000000000000000000000000600052604160045260246000fd5b61244a826121f4565b810181811067ffffffffffffffff8211171561246957612468612412565b5b80604052505050565b600061247c6120df565b90506124888282612441565b919050565b600067ffffffffffffffff8211156124a8576124a7612412565b5b6124b1826121f4565b9050602081019050919050565b82818337600083830152505050565b60006124e06124db8461248d565b612472565b9050828152602081018484840111156124fc576124fb61240d565b5b6125078482856124be565b509392505050565b600082601f83011261252457612523612408565b5b81356125348482602086016124cd565b91505092915050565b600060208284031215612553576125526120e9565b5b600082013567ffffffffffffffff811115612571576125706120ee565b5b61257d8482850161250f565b91505092915050565b60006020828403121561259c5761259b6120e9565b5b60006125aa84828501612336565b91505092915050565b6125bc81612178565b81146125c757600080fd5b50565b6000813590506125d9816125b3565b92915050565b600080604083850312156125f6576125f56120e9565b5b600061260485828601612336565b9250506020612615858286016125ca565b9150509250929050565b600067ffffffffffffffff82111561263a57612639612412565b5b612643826121f4565b9050602081019050919050565b600061266361265e8461261f565b612472565b90508281526020810184848401111561267f5761267e61240d565b5b61268a8482856124be565b509392505050565b600082601f8301126126a7576126a6612408565b5b81356126b7848260208601612650565b91505092915050565b600080600080608085870312156126da576126d96120e9565b5b60006126e887828801612336565b94505060206126f987828801612336565b935050604061270a87828801612281565b925050606085013567ffffffffffffffff81111561272b5761272a6120ee565b5b61273787828801612692565b91505092959194509250565b6000806040838503121561275a576127596120e9565b5b600061276885828601612336565b925050602061277985828601612336565b9150509250929050565b7f4e487b7100000000000000000000000000000000000000000000000000000000600052602260045260246000fd5b600060028204905060018216806127ca57607f821691505b6020821081036127dd576127dc612783565b5b50919050565b60006060820190506127f860008301866122f5565b612805602083018561238b565b61281260408301846122f5565b949350505050565b600060408201905061282f60008301856122f5565b61283c602083018461238b565b9392505050565b7f4e487b7100000000000000000000000000000000000000000000000000000000600052603260045260246000fd5b7f4e487b7100000000000000000000000000000000000000000000000000000000600052601160045260246000fd5b60006128ac82612260565b91507fffffffffffffffffffffffffffffffffffffffffffffffffffffffffffffffff82036128de576128dd612872565b5b600182019050919050565b60008190508160005260206000209050919050565b60006020601f8301049050919050565b600082821b905092915050565b60006008830261294b7fffffffffffffffffffffffffffffffffffffffffffffffffffffffffffffffff8261290e565b612955868361290e565b95508019841693508086168417925050509392505050565b6000819050919050565b600061299261298d61298884612260565b61296d565b612260565b9050919050565b6000819050919050565b6129ac83612977565b6129c06129b882612999565b84845461291b565b825550505050565b600090565b6129d56129c8565b6129e08184846129a3565b505050565b5b81811015612a04576129f96000826129cd565b6001810190506129e6565b5050565b601f821115612a4957612a1a816128e9565b612a23846128fe565b81016020851015612a32578190505b612a46612a3e856128fe565b8301826129e5565b50505b505050565b600082821c905092915050565b6000612a6c60001984600802612a4e565b1980831691505092915050565b6000612a858383612a5b565b9150826002028217905092915050565b612a9e826121ae565b67ffffffffffffffff811115612ab757612ab6612412565b5b612ac182546127b2565b612acc828285612a08565b600060209050601f831160018114612aff5760008415612aed578287015190505b612af78582612a79565b865550612b5f565b601f198416612b0d866128e9565b60005b82811015612b3557848901518255600182019150602085019450602081019050612b10565b86831015612b525784890151612b4e601f891682612a5b565b8355505b6001600288020188555050505b505050505050565b600081519050919050565b600082825260208201905092915050565b6000612b8e82612b67565b612b988185612b72565b9350612ba88185602086016121ca565b612bb1816121f4565b840191505092915050565b6000608082019050612bd160008301876122f5565b612bde60208301866122f5565b612beb604083018561238b565b8181036060830152612bfd8184612b83565b905095945050505050565b600081519050612c178161211f565b92915050565b600060208284031215612c3357612c326120e9565b5b6000612c4184828501612c08565b91505092915050565b600081905092915050565b6000612c60826121ae565b612c6a8185612c4a565b9350612c7a8185602086016121ca565b80840191505092915050565b6000612c928285612c55565b9150612c9e8284612c55565b91508190509392505050565b6000612cb582612260565b9150612cc083612260565b9250828203905081811115612cd857612cd7612872565b5b92915050565b7f4e487b7100000000000000000000000000000000000000000000000000000000600052603160045260246000fd5b7f4e487b7100000000000000000000000000000000000000000000000000000000600052601260045260246000fdfea2646970667358221220801e147f915c2dffe482b7859a5625f377e447a0ed1bf745e66e258df6525e5d64736f6c63430008180033",
  "linkReferences": {},
  "deployedLinkReferences": {}
}