{
  "_format": "hh-sol-artifact-1",
  "contractName": "HaverEscrow",
  "sourceName": "contracts/HaverEscrow.sol",
  "abi": [
    {
      "inputs": [
        {
          "internalType": "address",
          "name": "_nftAddress",
          "type": "address"
        },
        {
          "internalType": "address",
          "name": "_inspector",
          "type": "address"
        }
      ],
      "stateMutability": "nonpayable",
      "type": "constructor"
    },
    {
      "inputs": [
        {
          "internalType": "address",
          "name": "owner",
          "type": "address"
        }
      ],
      "name": "OwnableInvalidOwner",
      "type": "error"
    },
    {
      "inputs": [
        {
          "internalType": "address",
          "name": "account",
          "type": "address"
        }
      ],
      "name": "OwnableUnauthorizedAccount",
      "type": "error"
    },
    {
      "anonymous": false,
      "inputs": [
        {
          "indexed": true,
          "internalType": "address",
          "name": "previousOwner",
          "type": "address"
        },
        {
          "indexed": true,
          "internalType": "address",
          "name": "newOwner",
          "type": "address"
        }
      ],
      "name": "OwnershipTransferred",
      "type": "event"
    },
    {
      "anonymous": false,
      "inputs": [
        {
          "indexed": false,
          "internalType": "uint256",
          "name": "tokenId",
          "type": "uint256"
        },
        {
          "indexed": false,
          "internalType": "address",
          "name": "seller",
          "type": "address"
        },
        {
          "indexed": false,
          "internalType": "uint256",
          "name": "amount",
          "type": "uint256"
        }
      ],
      "name": "PropertyListed",
      "type": "event"
    },
    {
      "anonymous": false,
      "inputs": [
        {
          "indexed": false,
          "internalType": "uint256",
          "name": "tokenId",
          "type": "uint256"
        },
        {
          "indexed": false,
          "internalType": "address",
          "name": "seller",
          "type": "address"
        }
      ],
      "name": "PropertyUnlisted",
      "type": "event"
    },
    {
      "anonymous": false,
      "inputs": [
        {
          "indexed": false,
          "internalType": "uint256",
          "name": "tokenId",
          "type": "uint256"
        },
        {
          "indexed": false,
          "internalType": "address",
          "name": "buyer",
          "type": "address"
        },
        {
          "indexed": false,
          "internalType": "bool",
          "name": "isSold",
          "type": "bool"
        }
      ],
      "name": "PropertyUpdated",
      "type": "event"
    },
    {
      "inputs": [
        {
          "internalType": "uint256",
          "name": "tokenId",
          "type": "uint256"
        }
      ],
      "name": "finishPurchase",
      "outputs": [],
      "stateMutability": "payable",
      "type": "function"
    },
    {
      "inputs": [],
      "name": "getPropertiest",
      "outputs": [
        {
          "components": [
            {
              "internalType": "uint256",
              "name": "tokenId",
              "type": "uint256"
            },
            {
              "internalType": "address",
              "name": "seller",
              "type": "address"
            },
            {
              "internalType": "address",
              "name": "buyer",
              "type": "address"
            },
            {
              "internalType": "uint256",
              "name": "amount",
              "type": "uint256"
            },
            {
              "internalType": "bool",
              "name": "isSold",
              "type": "bool"
            }
          ],
          "internalType": "struct HaverEscrow.PropertySales[]",
          "name": "",
          "type": "tuple[]"
        }
      ],
      "stateMutability": "view",
      "type": "function"
    },
    {
      "inputs": [
        {
          "internalType": "uint256",
          "name": "",
          "type": "uint256"
        }
      ],
      "name": "infoPropertyByToken",
      "outputs": [
        {
          "internalType": "uint256",
          "name": "tokenId",
          "type": "uint256"
        },
        {
          "internalType": "address",
          "name": "seller",
          "type": "address"
        },
        {
          "internalType": "address",
          "name": "buyer",
          "type": "address"
        },
        {
          "internalType": "uint256",
          "name": "amount",
          "type": "uint256"
        },
        {
          "internalType": "bool",
          "name": "isSold",
          "type": "bool"
        }
      ],
      "stateMutability": "view",
      "type": "function"
    },
    {
      "inputs": [
        {
          "internalType": "uint256",
          "name": "tokenID",
          "type": "uint256"
        }
      ],
      "name": "inspection",
      "outputs": [],
      "stateMutability": "nonpayable",
      "type": "function"
    },
    {
      "inputs": [],
      "name": "inspector",
      "outputs": [
        {
          "internalType": "address",
          "name": "",
          "type": "address"
        }
      ],
      "stateMutability": "view",
      "type": "function"
    },
    {
      "inputs": [
        {
          "internalType": "uint256",
          "name": "",
          "type": "uint256"
        }
      ],
      "name": "isInspected",
      "outputs": [
        {
          "internalType": "bool",
          "name": "",
          "type": "bool"
        }
      ],
      "stateMutability": "view",
      "type": "function"
    },
    {
      "inputs": [
        {
          "internalType": "uint256",
          "name": "",
          "type": "uint256"
        }
      ],
      "name": "isListed",
      "outputs": [
        {
          "internalType": "bool",
          "name": "",
          "type": "bool"
        }
      ],
      "stateMutability": "view",
      "type": "function"
    },
    {
      "inputs": [
        {
          "internalType": "uint256",
          "name": "tokenID",
          "type": "uint256"
        },
        {
          "internalType": "uint256",
          "name": "_price",
          "type": "uint256"
        }
      ],
      "name": "list",
      "outputs": [],
      "stateMutability": "payable",
      "type": "function"
    },
    {
      "inputs": [],
      "name": "nftAddress",
      "outputs": [
        {
          "internalType": "address",
          "name": "",
          "type": "address"
        }
      ],
      "stateMutability": "view",
      "type": "function"
    },
    {
      "inputs": [],
      "name": "owner",
      "outputs": [
        {
          "internalType": "address",
          "name": "",
          "type": "address"
        }
      ],
      "stateMutability": "view",
      "type": "function"
    },
    {
      "inputs": [
        {
          "internalType": "uint256",
          "name": "",
          "type": "uint256"
        }
      ],
      "name": "propertySales",
      "outputs": [
        {
          "internalType": "uint256",
          "name": "tokenId",
          "type": "uint256"
        },
        {
          "internalType": "address",
          "name": "seller",
          "type": "address"
        },
        {
          "internalType": "address",
          "name": "buyer",
          "type": "address"
        },
        {
          "internalType": "uint256",
          "name": "amount",
          "type": "uint256"
        },
        {
          "internalType": "bool",
          "name": "isSold",
          "type": "bool"
        }
      ],
      "stateMutability": "view",
      "type": "function"
    },
    {
      "inputs": [],
      "name": "renounceOwnership",
      "outputs": [],
      "stateMutability": "nonpayable",
      "type": "function"
    },
    {
      "inputs": [
        {
          "internalType": "address",
          "name": "newOwner",
          "type": "address"
        }
      ],
      "name": "transferOwnership",
      "outputs": [],
      "stateMutability": "nonpayable",
      "type": "function"
    },
    {
      "inputs": [
        {
          "internalType": "uint256",
          "name": "tokenId",
          "type": "uint256"
        }
      ],
      "name": "unlist",
      "outputs": [],
      "stateMutability": "payable",
      "type": "function"
    },
    {
      "inputs": [
        {
          "internalType": "address",
          "name": "_to",
          "type": "address"
        }
      ],
      "name": "withdrawFunds",
      "outputs": [],
      "stateMutability": "payable",
      "type": "function"
    }
  ],
  "bytecode": "0x6080604052662386f26fc100006003553480156200001c57600080fd5b50604051620028fa380380620028fa833981810160405281019062000042919062000282565b33600073ffffffffffffffffffffffffffffffffffffffff168173ffffffffffffffffffffffffffffffffffffffff1603620000b85760006040517f1e4fbdf7000000000000000000000000000000000000000000000000000000008152600401620000af9190620002da565b60405180910390fd5b620000c9816200015460201b60201c565b5081600160006101000a81548173ffffffffffffffffffffffffffffffffffffffff021916908373ffffffffffffffffffffffffffffffffffffffff16021790555080600260006101000a81548173ffffffffffffffffffffffffffffffffffffffff021916908373ffffffffffffffffffffffffffffffffffffffff1602179055505050620002f7565b60008060009054906101000a900473ffffffffffffffffffffffffffffffffffffffff169050816000806101000a81548173ffffffffffffffffffffffffffffffffffffffff021916908373ffffffffffffffffffffffffffffffffffffffff1602179055508173ffffffffffffffffffffffffffffffffffffffff168173ffffffffffffffffffffffffffffffffffffffff167f8be0079c531659141344cd1fd0a4f28419497f9722a3daafe3b4186f6b6457e060405160405180910390a35050565b600080fd5b600073ffffffffffffffffffffffffffffffffffffffff82169050919050565b60006200024a826200021d565b9050919050565b6200025c816200023d565b81146200026857600080fd5b50565b6000815190506200027c8162000251565b92915050565b600080604083850312156200029c576200029b62000218565b5b6000620002ac858286016200026b565b9250506020620002bf858286016200026b565b9150509250929050565b620002d4816200023d565b82525050565b6000602082019050620002f16000830184620002c9565b92915050565b6125f380620003076000396000f3fe6080604052600436106100e85760003560e01c80639dd66c6f1161008a578063c50443ae11610059578063c50443ae146102c1578063ed2cee9e146102dd578063f2fde38b14610308578063fcce488314610331576100e8565b80639dd66c6f146101fe5780639ff4e1731461023b578063b33239ef14610264578063bf5a4dd3146102a5576100e8565b80635bf8633a116100c65780635bf8633a1461017557806368742da6146101a0578063715018a6146101bc5780638da5cb5b146101d3576100e8565b80631e7a7dd3146100ed5780634c6ec2df1461012e57806350fd736714610159575b600080fd5b3480156100f957600080fd5b50610114600480360381019061010f91906119fa565b61036e565b604051610125959493929190611a92565b60405180910390f35b34801561013a57600080fd5b50610143610401565b6040516101509190611c29565b60405180910390f35b610173600480360381019061016e9190611c4b565b610541565b005b34801561018157600080fd5b5061018a6109f2565b6040516101979190611c8b565b60405180910390f35b6101ba60048036038101906101b59190611cd2565b610a18565b005b3480156101c857600080fd5b506101d1610b1c565b005b3480156101df57600080fd5b506101e8610b30565b6040516101f59190611c8b565b60405180910390f35b34801561020a57600080fd5b50610225600480360381019061022091906119fa565b610b59565b6040516102329190611cff565b60405180910390f35b34801561024757600080fd5b50610262600480360381019061025d91906119fa565b610b79565b005b34801561027057600080fd5b5061028b600480360381019061028691906119fa565b610c38565b60405161029c959493929190611a92565b60405180910390f35b6102bf60048036038101906102ba91906119fa565b610cbb565b005b6102db60048036038101906102d691906119fa565b610f49565b005b3480156102e957600080fd5b506102f2611408565b6040516102ff9190611c8b565b60405180910390f35b34801561031457600080fd5b5061032f600480360381019061032a9190611cd2565b61142e565b005b34801561033d57600080fd5b50610358600480360381019061035391906119fa565b6114b4565b6040516103659190611cff565b60405180910390f35b6007818154811061037e57600080fd5b90600052602060002090600502016000915090508060000154908060010160009054906101000a900473ffffffffffffffffffffffffffffffffffffffff16908060020160009054906101000a900473ffffffffffffffffffffffffffffffffffffffff16908060030154908060040160009054906101000a900460ff16905085565b606060006007805480602002602001604051908101604052809291908181526020016000905b8282101561053457838290600052602060002090600502016040518060a0016040529081600082015481526020016001820160009054906101000a900473ffffffffffffffffffffffffffffffffffffffff1673ffffffffffffffffffffffffffffffffffffffff1673ffffffffffffffffffffffffffffffffffffffff1681526020016002820160009054906101000a900473ffffffffffffffffffffffffffffffffffffffff1673ffffffffffffffffffffffffffffffffffffffff1673ffffffffffffffffffffffffffffffffffffffff168152602001600382015481526020016004820160009054906101000a900460ff16151515158152505081526020019060010190610427565b5050505090508091505090565b60008111610584576040517f08c379a000000000000000000000000000000000000000000000000000000000815260040161057b90611d77565b60405180910390fd5b3073ffffffffffffffffffffffffffffffffffffffff16600160009054906101000a900473ffffffffffffffffffffffffffffffffffffffff1673ffffffffffffffffffffffffffffffffffffffff1663081812fc846040518263ffffffff1660e01b81526004016105f69190611d97565b602060405180830381865afa158015610613573d6000803e3d6000fd5b505050506040513d601f19601f820116820180604052508101906106379190611dc7565b73ffffffffffffffffffffffffffffffffffffffff161461068d576040517f08c379a000000000000000000000000000000000000000000000000000000000815260040161068490611e66565b60405180910390fd5b60035434146106d1576040517f08c379a00000000000000000000000000000000000000000000000000000000081526004016106c890611ef8565b60405180910390fd5b600160009054906101000a900473ffffffffffffffffffffffffffffffffffffffff1673ffffffffffffffffffffffffffffffffffffffff166323b872dd3330856040518463ffffffff1660e01b815260040161073093929190611f18565b600060405180830381600087803b15801561074a57600080fd5b505af115801561075e573d6000803e3d6000fd5b5050505060006040518060a001604052808481526020013373ffffffffffffffffffffffffffffffffffffffff168152602001600073ffffffffffffffffffffffffffffffffffffffff16815260200183815260200160001515815250905060078190806001815401808255809150506001900390600052602060002090600502016000909190919091506000820151816000015560208201518160010160006101000a81548173ffffffffffffffffffffffffffffffffffffffff021916908373ffffffffffffffffffffffffffffffffffffffff16021790555060408201518160020160006101000a81548173ffffffffffffffffffffffffffffffffffffffff021916908373ffffffffffffffffffffffffffffffffffffffff1602179055506060820151816003015560808201518160040160006101000a81548160ff021916908315150217905550505080600660008581526020019081526020016000206000820151816000015560208201518160010160006101000a81548173ffffffffffffffffffffffffffffffffffffffff021916908373ffffffffffffffffffffffffffffffffffffffff16021790555060408201518160020160006101000a81548173ffffffffffffffffffffffffffffffffffffffff021916908373ffffffffffffffffffffffffffffffffffffffff1602179055506060820151816003015560808201518160040160006101000a81548160ff02191690831515021790555090505060016004600085815260200190815260200160002060006101000a81548160ff0219169083151502179055507f23fb658c1698b92f5fe511a079c17ecf7965cbc3f1b873328c67e2c3c0820f1f8333846040516109e593929190611f4f565b60405180910390a1505050565b600160009054906101000a900473ffffffffffffffffffffffffffffffffffffffff1681565b610a206114d4565b60004711610a63576040517f08c379a0000000000000000000000000000000000000000000000000000000008152600401610a5a90611fd2565b60405180910390fd5b600073ffffffffffffffffffffffffffffffffffffffff168173ffffffffffffffffffffffffffffffffffffffff1603610ad2576040517f08c379a0000000000000000000000000000000000000000000000000000000008152600401610ac99061203e565b60405180910390fd5b8073ffffffffffffffffffffffffffffffffffffffff166108fc479081150290604051600060405180830381858888f19350505050158015610b18573d6000803e3d6000fd5b5050565b610b246114d4565b610b2e600061155b565b565b60008060009054906101000a900473ffffffffffffffffffffffffffffffffffffffff16905090565b60056020528060005260406000206000915054906101000a900460ff1681565b600260009054906101000a900473ffffffffffffffffffffffffffffffffffffffff1673ffffffffffffffffffffffffffffffffffffffff163373ffffffffffffffffffffffffffffffffffffffff1614610c09576040517f08c379a0000000000000000000000000000000000000000000000000000000008152600401610c00906120aa565b60405180910390fd5b60016005600083815260200190815260200160002060006101000a81548160ff02191690831515021790555050565b60066020528060005260406000206000915090508060000154908060010160009054906101000a900473ffffffffffffffffffffffffffffffffffffffff16908060020160009054906101000a900473ffffffffffffffffffffffffffffffffffffffff16908060030154908060040160009054906101000a900460ff16905085565b6004600082815260200190815260200160002060009054906101000a900460ff16610d1b576040517f08c379a0000000000000000000000000000000000000000000000000000000008152600401610d1290612116565b60405180910390fd5b3373ffffffffffffffffffffffffffffffffffffffff166006600083815260200190815260200160002060010160009054906101000a900473ffffffffffffffffffffffffffffffffffffffff1673ffffffffffffffffffffffffffffffffffffffff1614610dbf576040517f08c379a0000000000000000000000000000000000000000000000000000000008152600401610db6906121a8565b60405180910390fd5b600160009054906101000a900473ffffffffffffffffffffffffffffffffffffffff1673ffffffffffffffffffffffffffffffffffffffff166323b872dd3033846040518463ffffffff1660e01b8152600401610e1e93929190611f18565b600060405180830381600087803b158015610e3857600080fd5b505af1158015610e4c573d6000803e3d6000fd5b5050505060006004600083815260200190815260200160002060006101000a81548160ff021916908315150217905550600660008281526020019081526020016000206000808201600090556001820160006101000a81549073ffffffffffffffffffffffffffffffffffffffff02191690556002820160006101000a81549073ffffffffffffffffffffffffffffffffffffffff021916905560038201600090556004820160006101000a81549060ff02191690555050610f0d8161161f565b7f9210b1753ade881b05bf2184f062b2cd1bfc84ec978199847bd70e14796d89058133604051610f3e9291906121c8565b60405180910390a150565b6006600082815260200190815260200160002060010160009054906101000a900473ffffffffffffffffffffffffffffffffffffffff1673ffffffffffffffffffffffffffffffffffffffff163373ffffffffffffffffffffffffffffffffffffffff1603610fed576040517f08c379a0000000000000000000000000000000000000000000000000000000008152600401610fe490612263565b60405180910390fd5b6004600082815260200190815260200160002060009054906101000a900460ff1661104d576040517f08c379a000000000000000000000000000000000000000000000000000000000815260040161104490612116565b60405180910390fd5b600060066000838152602001908152602001600020905080600301543410156110ab576040517f08c379a00000000000000000000000000000000000000000000000000000000081526004016110a2906122cf565b60405180910390fd5b8060040160009054906101000a900460ff16156110fd576040517f08c379a00000000000000000000000000000000000000000000000000000000081526004016110f49061233b565b60405180910390fd5b6005600083815260200190815260200160002060009054906101000a900460ff1661115d576040517f08c379a0000000000000000000000000000000000000000000000000000000008152600401611154906123cd565b60405180910390fd5b338160020160006101000a81548173ffffffffffffffffffffffffffffffffffffffff021916908373ffffffffffffffffffffffffffffffffffffffff16021790555060018160040160006101000a81548160ff02191690831515021790555060006111c88361191f565b905060078054905081101561125f576000600782815481106111ed576111ec6123ed565b5b90600052602060002090600502019050338160020160006101000a81548173ffffffffffffffffffffffffffffffffffffffff021916908373ffffffffffffffffffffffffffffffffffffffff16021790555060018160040160006101000a81548160ff021916908315150217905550505b7f47f313063b7b916d5a0fc06268eb854e36147f5af68a0c155086e5d63cc23c8e833360016040516112939392919061241c565b60405180910390a18160010160009054906101000a900473ffffffffffffffffffffffffffffffffffffffff1673ffffffffffffffffffffffffffffffffffffffff166108fc83600301549081150290604051600060405180830381858888f19350505050158015611309573d6000803e3d6000fd5b50600160009054906101000a900473ffffffffffffffffffffffffffffffffffffffff1673ffffffffffffffffffffffffffffffffffffffff166323b872dd3033866040518463ffffffff1660e01b815260040161136993929190611f18565b600060405180830381600087803b15801561138357600080fd5b505af1158015611397573d6000803e3d6000fd5b5050505060006004600085815260200190815260200160002060006101000a81548160ff0219169083151502179055507f47f313063b7b916d5a0fc06268eb854e36147f5af68a0c155086e5d63cc23c8e833360016040516113fb9392919061241c565b60405180910390a1505050565b600260009054906101000a900473ffffffffffffffffffffffffffffffffffffffff1681565b6114366114d4565b600073ffffffffffffffffffffffffffffffffffffffff168173ffffffffffffffffffffffffffffffffffffffff16036114a85760006040517f1e4fbdf700000000000000000000000000000000000000000000000000000000815260040161149f9190611c8b565b60405180910390fd5b6114b18161155b565b50565b60046020528060005260406000206000915054906101000a900460ff1681565b6114dc6119b7565b73ffffffffffffffffffffffffffffffffffffffff166114fa610b30565b73ffffffffffffffffffffffffffffffffffffffff16146115595761151d6119b7565b6040517f118cdaa70000000000000000000000000000000000000000000000000000000081526004016115509190611c8b565b60405180910390fd5b565b60008060009054906101000a900473ffffffffffffffffffffffffffffffffffffffff169050816000806101000a81548173ffffffffffffffffffffffffffffffffffffffff021916908373ffffffffffffffffffffffffffffffffffffffff1602179055508173ffffffffffffffffffffffffffffffffffffffff168173ffffffffffffffffffffffffffffffffffffffff167f8be0079c531659141344cd1fd0a4f28419497f9722a3daafe3b4186f6b6457e060405160405180910390a35050565b3373ffffffffffffffffffffffffffffffffffffffff166006600083815260200190815260200160002060010160009054906101000a900473ffffffffffffffffffffffffffffffffffffffff1673ffffffffffffffffffffffffffffffffffffffff16146116c3576040517f08c379a00000000000000000000000000000000000000000000000000000000081526004016116ba906121a8565b60405180910390fd5b60006116ce8261191f565b90506007805490508110611717576040517f08c379a000000000000000000000000000000000000000000000000000000000815260040161170e9061249f565b60405180910390fd5b6007600160078054905061172b91906124ee565b8154811061173c5761173b6123ed565b5b90600052602060002090600502016007828154811061175e5761175d6123ed565b5b9060005260206000209060050201600082015481600001556001820160009054906101000a900473ffffffffffffffffffffffffffffffffffffffff168160010160006101000a81548173ffffffffffffffffffffffffffffffffffffffff021916908373ffffffffffffffffffffffffffffffffffffffff1602179055506002820160009054906101000a900473ffffffffffffffffffffffffffffffffffffffff168160020160006101000a81548173ffffffffffffffffffffffffffffffffffffffff021916908373ffffffffffffffffffffffffffffffffffffffff160217905550600382015481600301556004820160009054906101000a900460ff168160040160006101000a81548160ff02191690831515021790555090505060078054806118905761188f612522565b5b60019003818190600052602060002090600502016000808201600090556001820160006101000a81549073ffffffffffffffffffffffffffffffffffffffff02191690556002820160006101000a81549073ffffffffffffffffffffffffffffffffffffffff021916905560038201600090556004820160006101000a81549060ff0219169055505090555050565b600080600090505b600780549050811015611976578260078281548110611949576119486123ed565b5b9060005260206000209060050201600001540361196957809150506119b2565b8080600101915050611927565b506040517f08c379a00000000000000000000000000000000000000000000000000000000081526004016119a99061259d565b60405180910390fd5b919050565b600033905090565b600080fd5b6000819050919050565b6119d7816119c4565b81146119e257600080fd5b50565b6000813590506119f4816119ce565b92915050565b600060208284031215611a1057611a0f6119bf565b5b6000611a1e848285016119e5565b91505092915050565b611a30816119c4565b82525050565b600073ffffffffffffffffffffffffffffffffffffffff82169050919050565b6000611a6182611a36565b9050919050565b611a7181611a56565b82525050565b60008115159050919050565b611a8c81611a77565b82525050565b600060a082019050611aa76000830188611a27565b611ab46020830187611a68565b611ac16040830186611a68565b611ace6060830185611a27565b611adb6080830184611a83565b9695505050505050565b600081519050919050565b600082825260208201905092915050565b6000819050602082019050919050565b611b1a816119c4565b82525050565b611b2981611a56565b82525050565b611b3881611a77565b82525050565b60a082016000820151611b546000850182611b11565b506020820151611b676020850182611b20565b506040820151611b7a6040850182611b20565b506060820151611b8d6060850182611b11565b506080820151611ba06080850182611b2f565b50505050565b6000611bb28383611b3e565b60a08301905092915050565b6000602082019050919050565b6000611bd682611ae5565b611be08185611af0565b9350611beb83611b01565b8060005b83811015611c1c578151611c038882611ba6565b9750611c0e83611bbe565b925050600181019050611bef565b5085935050505092915050565b60006020820190508181036000830152611c438184611bcb565b905092915050565b60008060408385031215611c6257611c616119bf565b5b6000611c70858286016119e5565b9250506020611c81858286016119e5565b9150509250929050565b6000602082019050611ca06000830184611a68565b92915050565b611caf81611a56565b8114611cba57600080fd5b50565b600081359050611ccc81611ca6565b92915050565b600060208284031215611ce857611ce76119bf565b5b6000611cf684828501611cbd565b91505092915050565b6000602082019050611d146000830184611a83565b92915050565b600082825260208201905092915050565b7f4552524f523a20507269636520696e636f727265637400000000000000000000600082015250565b6000611d61601683611d1a565b9150611d6c82611d2b565b602082019050919050565b60006020820190508181036000830152611d9081611d54565b9050919050565b6000602082019050611dac6000830184611a27565b92915050565b600081519050611dc181611ca6565b92915050565b600060208284031215611ddd57611ddc6119bf565b5b6000611deb84828501611db2565b91505092915050565b7f5765206e656564207065726d697373696f6e7320746f206c697374207468697360008201527f206f742000000000000000000000000000000000000000000000000000000000602082015250565b6000611e50602483611d1a565b9150611e5b82611df4565b604082019050919050565b60006020820190508181036000830152611e7f81611e43565b9050919050565b7f446964206e6f742073656e64207468652076616c7565206f662074686520636f60008201527f7374206f6620746865207075626c69636174696f6e0000000000000000000000602082015250565b6000611ee2603583611d1a565b9150611eed82611e86565b604082019050919050565b60006020820190508181036000830152611f1181611ed5565b9050919050565b6000606082019050611f2d6000830186611a68565b611f3a6020830185611a68565b611f476040830184611a27565b949350505050565b6000606082019050611f646000830186611a27565b611f716020830185611a68565b611f7e6040830184611a27565b949350505050565b7f54686572652069736e742066756e647300000000000000000000000000000000600082015250565b6000611fbc601083611d1a565b9150611fc782611f86565b602082019050919050565b60006020820190508181036000830152611feb81611faf565b9050919050565b7f2054686973206164647265737320646f65736e74206578697374000000000000600082015250565b6000612028601a83611d1a565b915061203382611ff2565b602082019050919050565b600060208201905081810360008301526120578161201b565b9050919050565b7f596f7520617265206e6f742074686520696e73706563746f7200000000000000600082015250565b6000612094601983611d1a565b915061209f8261205e565b602082019050919050565b600060208201905081810360008301526120c381612087565b9050919050565b7f5468697320546f6b656e206973206e6f74206c69737465642100000000000000600082015250565b6000612100601983611d1a565b915061210b826120ca565b602082019050919050565b6000602082019050818103600083015261212f816120f3565b9050919050565b7f596f20617265206e6f74207468652073656c6c6572206f66207468697320546f60008201527f6b656e0000000000000000000000000000000000000000000000000000000000602082015250565b6000612192602383611d1a565b915061219d82612136565b604082019050919050565b600060208201905081810360008301526121c181612185565b9050919050565b60006040820190506121dd6000830185611a27565b6121ea6020830184611a68565b9392505050565b7f596f7520617265207468652073656c6c6572206f6620746869732070726f706560008201527f7274790000000000000000000000000000000000000000000000000000000000602082015250565b600061224d602383611d1a565b9150612258826121f1565b604082019050919050565b6000602082019050818103600083015261227c81612240565b9050919050565b7f496e73756666696369656e742066756e64732073656e74000000000000000000600082015250565b60006122b9601783611d1a565b91506122c482612283565b602082019050919050565b600060208201905081810360008301526122e8816122ac565b9050919050565b7f50726f706572747920616c726561647920736f6c640000000000000000000000600082015250565b6000612325601583611d1a565b9150612330826122ef565b602082019050919050565b6000602082019050818103600083015261235481612318565b9050919050565b7f546869732070726f706572747920686173206e6f74206265656e20696e73706560008201527f6374656420796574210000000000000000000000000000000000000000000000602082015250565b60006123b7602983611d1a565b91506123c28261235b565b604082019050919050565b600060208201905081810360008301526123e6816123aa565b9050919050565b7f4e487b7100000000000000000000000000000000000000000000000000000000600052603260045260246000fd5b60006060820190506124316000830186611a27565b61243e6020830185611a68565b61244b6040830184611a83565b949350505050565b7f50726f7065727479206e6f7420666f756e640000000000000000000000000000600082015250565b6000612489601283611d1a565b915061249482612453565b602082019050919050565b600060208201905081810360008301526124b88161247c565b9050919050565b7f4e487b7100000000000000000000000000000000000000000000000000000000600052601160045260246000fd5b60006124f9826119c4565b9150612504836119c4565b925082820390508181111561251c5761251b6124bf565b5b92915050565b7f4e487b7100000000000000000000000000000000000000000000000000000000600052603160045260246000fd5b7f546f6b656e204944206e6f7420666f756e640000000000000000000000000000600082015250565b6000612587601283611d1a565b915061259282612551565b602082019050919050565b600060208201905081810360008301526125b68161257a565b905091905056fea26469706673582212204d276a66dcd34822c3a3f0e301a18abe5662312e3038f003a4c599390e18081464736f6c63430008180033",
  "linkReferences": {},
  "deployedLinkReferences": {}
}